{
  "_format": "hh-sol-artifact-1",
  "contractName": "Reservation",
  "sourceName": "contracts/Reservation.sol",
  "abi": [
    {
      "inputs": [],
      "stateMutability": "nonpayable",
      "type": "constructor"
    },
    {
      "anonymous": false,
      "inputs": [
        {
          "indexed": true,
          "internalType": "address",
          "name": "user",
          "type": "address"
        }
      ],
      "name": "Cancelled",
      "type": "event"
    },
    {
      "anonymous": false,
      "inputs": [
        {
          "indexed": true,
          "internalType": "address",
          "name": "user",
          "type": "address"
        }
      ],
      "name": "Reserved",
      "type": "event"
    },
    {
      "inputs": [],
      "name": "cancelReservation",
      "outputs": [],
      "stateMutability": "nonpayable",
      "type": "function"
    },
    {
      "inputs": [
        {
          "internalType": "address",
          "name": "_user",
          "type": "address"
        }
      ],
      "name": "getReservationStatus",
      "outputs": [
        {
          "internalType": "bool",
          "name": "",
          "type": "bool"
        }
      ],
      "stateMutability": "view",
      "type": "function"
    },
    {
      "inputs": [],
      "name": "makeReservation",
      "outputs": [],
      "stateMutability": "nonpayable",
      "type": "function"
    },
    {
      "inputs": [],
      "name": "owner",
      "outputs": [
        {
          "internalType": "address",
          "name": "",
          "type": "address"
        }
      ],
      "stateMutability": "view",
      "type": "function"
    },
    {
      "inputs": [
        {
          "internalType": "address",
          "name": "",
          "type": "address"
        }
      ],
      "name": "reservations",
      "outputs": [
        {
          "internalType": "bool",
          "name": "",
          "type": "bool"
        }
      ],
      "stateMutability": "view",
      "type": "function"
    }
  ],
  "bytecode": "0x608060405234801561001057600080fd5b50336000806101000a81548173ffffffffffffffffffffffffffffffffffffffff021916908373ffffffffffffffffffffffffffffffffffffffff16021790555061060f806100606000396000f3fe608060405234801561001057600080fd5b50600436106100575760003560e01c806303cedaa61461005c5780630d6c4363146100665780631876e8d1146100965780638da5cb5b146100a0578063fd3dc53a146100be575b600080fd5b6100646100ee565b005b610080600480360381019061007b919061043d565b610217565b60405161008d9190610485565b60405180910390f35b61009e61026d565b005b6100a8610396565b6040516100b591906104af565b60405180910390f35b6100d860048036038101906100d3919061043d565b6103ba565b6040516100e59190610485565b60405180910390f35b600160003373ffffffffffffffffffffffffffffffffffffffff1673ffffffffffffffffffffffffffffffffffffffff16815260200190815260200160002060009054906101000a900460ff1661017a576040517f08c379a00000000000000000000000000000000000000000000000000000000081526004016101719061054d565b60405180910390fd5b6000600160003373ffffffffffffffffffffffffffffffffffffffff1673ffffffffffffffffffffffffffffffffffffffff16815260200190815260200160002060006101000a81548160ff0219169083151502179055503373ffffffffffffffffffffffffffffffffffffffff167f398bd6b21ae4164ec322fb0eb8c2eb6277f36fd41903fbbed594dfe12559128160405160405180910390a2565b6000600160008373ffffffffffffffffffffffffffffffffffffffff1673ffffffffffffffffffffffffffffffffffffffff16815260200190815260200160002060009054906101000a900460ff169050919050565b600160003373ffffffffffffffffffffffffffffffffffffffff1673ffffffffffffffffffffffffffffffffffffffff16815260200190815260200160002060009054906101000a900460ff16156102fa576040517f08c379a00000000000000000000000000000000000000000000000000000000081526004016102f1906105b9565b60405180910390fd5b60018060003373ffffffffffffffffffffffffffffffffffffffff1673ffffffffffffffffffffffffffffffffffffffff16815260200190815260200160002060006101000a81548160ff0219169083151502179055503373ffffffffffffffffffffffffffffffffffffffff167f09c4e77e52e0615d46611f4af65ae9725921da7cf79f04addbd9c7dd9beb1bec60405160405180910390a2565b60008054906101000a900473ffffffffffffffffffffffffffffffffffffffff1681565b60016020528060005260406000206000915054906101000a900460ff1681565b600080fd5b600073ffffffffffffffffffffffffffffffffffffffff82169050919050565b600061040a826103df565b9050919050565b61041a816103ff565b811461042557600080fd5b50565b60008135905061043781610411565b92915050565b600060208284031215610453576104526103da565b5b600061046184828501610428565b91505092915050565b60008115159050919050565b61047f8161046a565b82525050565b600060208201905061049a6000830184610476565b92915050565b6104a9816103ff565b82525050565b60006020820190506104c460008301846104a0565b92915050565b600082825260208201905092915050565b7f596f7520646f6e277420686176652061207265736572766174696f6e20746f2060008201527f63616e63656c2e00000000000000000000000000000000000000000000000000602082015250565b60006105376027836104ca565b9150610542826104db565b604082019050919050565b600060208201905081810360008301526105668161052a565b9050919050565b7f596f7520616c726561647920686176652061207265736572766174696f6e2e00600082015250565b60006105a3601f836104ca565b91506105ae8261056d565b602082019050919050565b600060208201905081810360008301526105d281610596565b905091905056fea2646970667358221220c0605471f8fcab5585d87f8698856b345fefe66153a802dd348b1fdd2fbae4f964736f6c63430008110033",
  "linkReferences": {},
  "deployedLinkReferences": {}
}